{
  "contractName": "token",
  "abi": [
    {
      "inputs": [],
      "stateMutability": "nonpayable",
      "type": "constructor"
    },
    {
      "inputs": [
        {
          "internalType": "address",
          "name": "",
          "type": "address"
        }
      ],
      "name": "balanceOf",
      "outputs": [
        {
          "internalType": "uint256",
          "name": "",
          "type": "uint256"
        }
      ],
      "stateMutability": "view",
      "type": "function",
      "constant": true
    },
    {
      "inputs": [],
      "name": "decimal",
      "outputs": [
        {
          "internalType": "uint256",
          "name": "",
          "type": "uint256"
        }
      ],
      "stateMutability": "view",
      "type": "function",
      "constant": true
    },
    {
      "inputs": [],
      "name": "name",
      "outputs": [
        {
          "internalType": "string",
          "name": "",
          "type": "string"
        }
      ],
      "stateMutability": "view",
      "type": "function",
      "constant": true
    },
    {
      "inputs": [],
      "name": "symbol",
      "outputs": [
        {
          "internalType": "string",
          "name": "",
          "type": "string"
        }
      ],
      "stateMutability": "view",
      "type": "function",
      "constant": true
    },
    {
      "inputs": [],
      "name": "totalSupply",
      "outputs": [
        {
          "internalType": "uint256",
          "name": "",
          "type": "uint256"
        }
      ],
      "stateMutability": "view",
      "type": "function",
      "constant": true
    },
    {
      "inputs": [
        {
          "internalType": "address",
          "name": "_to",
          "type": "address"
        },
        {
          "internalType": "uint256",
          "name": "_value",
          "type": "uint256"
        }
      ],
      "name": "transfer",
      "outputs": [
        {
          "internalType": "bool",
          "name": "sucsess",
          "type": "bool"
        }
      ],
      "stateMutability": "nonpayable",
      "type": "function"
    }
  ],
  "bytecode": "0x60806040526040518060400160405280600c81526020017f41726162696320746f6b656e0000000000000000000000000000000000000000815250600090805190602001906200005192919062000125565b506040518060400160405280600481526020017f4152414200000000000000000000000000000000000000000000000000000000815250600190805190602001906200009f92919062000125565b50600a600255348015620000b257600080fd5b50600254600a620000c4919062000362565b6107d0620000d39190620003b3565b600381905550600354600460003373ffffffffffffffffffffffffffffffffffffffff1673ffffffffffffffffffffffffffffffffffffffff1681526020019081526020016000208190555062000478565b828054620001339062000443565b90600052602060002090601f016020900481019282620001575760008555620001a3565b82601f106200017257805160ff1916838001178555620001a3565b82800160010185558215620001a3579182015b82811115620001a257825182559160200191906001019062000185565b5b509050620001b29190620001b6565b5090565b5b80821115620001d1576000816000905550600101620001b7565b5090565b7f4e487b7100000000000000000000000000000000000000000000000000000000600052601160045260246000fd5b60008160011c9050919050565b6000808291508390505b600185111562000263578086048111156200023b576200023a620001d5565b5b60018516156200024b5780820291505b80810290506200025b8562000204565b94506200021b565b94509492505050565b6000826200027e576001905062000351565b816200028e576000905062000351565b8160018114620002a75760028114620002b257620002e8565b600191505062000351565b60ff841115620002c757620002c6620001d5565b5b8360020a915084821115620002e157620002e0620001d5565b5b5062000351565b5060208310610133831016604e8410600b8410161715620003225782820a9050838111156200031c576200031b620001d5565b5b62000351565b62000331848484600162000211565b925090508184048111156200034b576200034a620001d5565b5b81810290505b9392505050565b6000819050919050565b60006200036f8262000358565b91506200037c8362000358565b9250620003ab7fffffffffffffffffffffffffffffffffffffffffffffffffffffffffffffffff84846200026c565b905092915050565b6000620003c08262000358565b9150620003cd8362000358565b9250817fffffffffffffffffffffffffffffffffffffffffffffffffffffffffffffffff0483118215151615620004095762000408620001d5565b5b828202905092915050565b7f4e487b7100000000000000000000000000000000000000000000000000000000600052602260045260246000fd5b600060028204905060018216806200045c57607f821691505b60208210810362000472576200047162000414565b5b50919050565b61075180620004886000396000f3fe608060405234801561001057600080fd5b50600436106100625760003560e01c806306fdde031461006757806318160ddd1461008557806370a08231146100a357806376809ce3146100d357806395d89b41146100f1578063a9059cbb1461010f575b600080fd5b61006f61013f565b60405161007c919061047a565b60405180910390f35b61008d6101cd565b60405161009a91906104b5565b60405180910390f35b6100bd60048036038101906100b89190610533565b6101d3565b6040516100ca91906104b5565b60405180910390f35b6100db6101eb565b6040516100e891906104b5565b60405180910390f35b6100f96101f1565b604051610106919061047a565b60405180910390f35b6101296004803603810190610124919061058c565b61027f565b60405161013691906105e7565b60405180910390f35b6000805461014c90610631565b80601f016020809104026020016040519081016040528092919081815260200182805461017890610631565b80156101c55780601f1061019a576101008083540402835291602001916101c5565b820191906000526020600020905b8154815290600101906020018083116101a857829003601f168201915b505050505081565b60035481565b60046020528060005260406000206000915090505481565b60025481565b600180546101fe90610631565b80601f016020809104026020016040519081016040528092919081815260200182805461022a90610631565b80156102775780601f1061024c57610100808354040283529160200191610277565b820191906000526020600020905b81548152906001019060200180831161025a57829003601f168201915b505050505081565b60006102d382600460003373ffffffffffffffffffffffffffffffffffffffff1673ffffffffffffffffffffffffffffffffffffffff168152602001908152602001600020546103b590919063ffffffff16565b600460003373ffffffffffffffffffffffffffffffffffffffff1673ffffffffffffffffffffffffffffffffffffffff1681526020019081526020016000208190555061036882600460008673ffffffffffffffffffffffffffffffffffffffff1673ffffffffffffffffffffffffffffffffffffffff168152602001908152602001600020546103cb90919063ffffffff16565b600460008573ffffffffffffffffffffffffffffffffffffffff1673ffffffffffffffffffffffffffffffffffffffff168152602001908152602001600020819055506001905092915050565b600081836103c39190610691565b905092915050565b600081836103d991906106c5565b905092915050565b600081519050919050565b600082825260208201905092915050565b60005b8381101561041b578082015181840152602081019050610400565b8381111561042a576000848401525b50505050565b6000601f19601f8301169050919050565b600061044c826103e1565b61045681856103ec565b93506104668185602086016103fd565b61046f81610430565b840191505092915050565b600060208201905081810360008301526104948184610441565b905092915050565b6000819050919050565b6104af8161049c565b82525050565b60006020820190506104ca60008301846104a6565b92915050565b600080fd5b600073ffffffffffffffffffffffffffffffffffffffff82169050919050565b6000610500826104d5565b9050919050565b610510816104f5565b811461051b57600080fd5b50565b60008135905061052d81610507565b92915050565b600060208284031215610549576105486104d0565b5b60006105578482850161051e565b91505092915050565b6105698161049c565b811461057457600080fd5b50565b60008135905061058681610560565b92915050565b600080604083850312156105a3576105a26104d0565b5b60006105b18582860161051e565b92505060206105c285828601610577565b9150509250929050565b60008115159050919050565b6105e1816105cc565b82525050565b60006020820190506105fc60008301846105d8565b92915050565b7f4e487b7100000000000000000000000000000000000000000000000000000000600052602260045260246000fd5b6000600282049050600182168061064957607f821691505b60208210810361065c5761065b610602565b5b50919050565b7f4e487b7100000000000000000000000000000000000000000000000000000000600052601160045260246000fd5b600061069c8261049c565b91506106a78361049c565b9250828210156106ba576106b9610662565b5b828203905092915050565b60006106d08261049c565b91506106db8361049c565b9250827fffffffffffffffffffffffffffffffffffffffffffffffffffffffffffffffff038211156107105761070f610662565b5b82820190509291505056fea26469706673582212200fd9b279dc2d5bab46693c0d28de6f7e6a8a8a977d66e55d65fe7abe89e223bd64736f6c634300080d0033",
  "immutableReferences": {},
  "source": "// SPDX-License-Identifier: MIT\r\npragma solidity ^0.8.11;\r\nimport \"../node_modules/@openzeppelin/contracts/utils/math/SafeMath.sol\";\r\n\r\ncontract token{\r\n    using SafeMath for uint;\r\n    string public name = \"Arabic token\";\r\n    string public symbol = \"ARAB\";\r\n    uint256 public decimal = 10;\r\n    uint256 public totalSupply;\r\n    mapping(address => uint256) public balanceOf;\r\n\r\n    constructor(){\r\n        totalSupply = 2000 * (10 ** decimal);\r\n        balanceOf[msg.sender] = totalSupply;\r\n\r\n    }\r\n\r\n    function transfer(address _to, uint256 _value) public returns(bool sucsess){\r\n        balanceOf[msg.sender] = balanceOf[msg.sender].sub(_value);\r\n        balanceOf[_to] = balanceOf[_to].add(_value);\r\n\r\n        return true;\r\n    }\r\n\r\n}",
  "sourcePath": "E:\\blockchain Courses\\practice\\myToken\\contracts\\Token.sol",
  "compiler": {
    "name": "solc",
    "version": "0.8.13+commit.abaa5c0e.Emscripten.clang"
  },
  "schemaVersion": "3.4.7",
  "updatedAt": "2022-07-21T14:47:02.585Z",
  "networkType": "ethereum",
  "devdoc": {
    "kind": "dev",
    "methods": {},
    "version": 1
  },
  "userdoc": {
    "kind": "user",
    "methods": {},
    "version": 1
  }
}